{
  "_format": "hh-sol-artifact-1",
  "contractName": "ProveltBadge",
  "sourceName": "src/ProveltBadge.sol",
  "abi": [
    {
      "inputs": [],
      "stateMutability": "nonpayable",
      "type": "constructor"
    },
    {
      "inputs": [],
      "name": "AccessControlBadConfirmation",
      "type": "error"
    },
    {
      "inputs": [
        {
          "internalType": "address",
          "name": "account",
          "type": "address"
        },
        {
          "internalType": "bytes32",
          "name": "neededRole",
          "type": "bytes32"
        }
      ],
      "name": "AccessControlUnauthorizedAccount",
      "type": "error"
    },
    {
      "inputs": [],
      "name": "ERC721EnumerableForbiddenBatchMint",
      "type": "error"
    },
    {
      "inputs": [
        {
          "internalType": "address",
          "name": "sender",
          "type": "address"
        },
        {
          "internalType": "uint256",
          "name": "tokenId",
          "type": "uint256"
        },
        {
          "internalType": "address",
          "name": "owner",
          "type": "address"
        }
      ],
      "name": "ERC721IncorrectOwner",
      "type": "error"
    },
    {
      "inputs": [
        {
          "internalType": "address",
          "name": "operator",
          "type": "address"
        },
        {
          "internalType": "uint256",
          "name": "tokenId",
          "type": "uint256"
        }
      ],
      "name": "ERC721InsufficientApproval",
      "type": "error"
    },
    {
      "inputs": [
        {
          "internalType": "address",
          "name": "approver",
          "type": "address"
        }
      ],
      "name": "ERC721InvalidApprover",
      "type": "error"
    },
    {
      "inputs": [
        {
          "internalType": "address",
          "name": "operator",
          "type": "address"
        }
      ],
      "name": "ERC721InvalidOperator",
      "type": "error"
    },
    {
      "inputs": [
        {
          "internalType": "address",
          "name": "owner",
          "type": "address"
        }
      ],
      "name": "ERC721InvalidOwner",
      "type": "error"
    },
    {
      "inputs": [
        {
          "internalType": "address",
          "name": "receiver",
          "type": "address"
        }
      ],
      "name": "ERC721InvalidReceiver",
      "type": "error"
    },
    {
      "inputs": [
        {
          "internalType": "address",
          "name": "sender",
          "type": "address"
        }
      ],
      "name": "ERC721InvalidSender",
      "type": "error"
    },
    {
      "inputs": [
        {
          "internalType": "uint256",
          "name": "tokenId",
          "type": "uint256"
        }
      ],
      "name": "ERC721NonexistentToken",
      "type": "error"
    },
    {
      "inputs": [
        {
          "internalType": "address",
          "name": "owner",
          "type": "address"
        },
        {
          "internalType": "uint256",
          "name": "index",
          "type": "uint256"
        }
      ],
      "name": "ERC721OutOfBoundsIndex",
      "type": "error"
    },
    {
      "anonymous": false,
      "inputs": [
        {
          "indexed": true,
          "internalType": "address",
          "name": "owner",
          "type": "address"
        },
        {
          "indexed": true,
          "internalType": "address",
          "name": "approved",
          "type": "address"
        },
        {
          "indexed": true,
          "internalType": "uint256",
          "name": "tokenId",
          "type": "uint256"
        }
      ],
      "name": "Approval",
      "type": "event"
    },
    {
      "anonymous": false,
      "inputs": [
        {
          "indexed": true,
          "internalType": "address",
          "name": "owner",
          "type": "address"
        },
        {
          "indexed": true,
          "internalType": "address",
          "name": "operator",
          "type": "address"
        },
        {
          "indexed": false,
          "internalType": "bool",
          "name": "approved",
          "type": "bool"
        }
      ],
      "name": "ApprovalForAll",
      "type": "event"
    },
    {
      "anonymous": false,
      "inputs": [
        {
          "indexed": true,
          "internalType": "address",
          "name": "recipient",
          "type": "address"
        },
        {
          "indexed": true,
          "internalType": "uint256",
          "name": "tokenId",
          "type": "uint256"
        },
        {
          "indexed": true,
          "internalType": "uint256",
          "name": "challengeId",
          "type": "uint256"
        },
        {
          "indexed": false,
          "internalType": "bytes32",
          "name": "proofHash",
          "type": "bytes32"
        },
        {
          "indexed": false,
          "internalType": "string",
          "name": "uri",
          "type": "string"
        }
      ],
      "name": "BadgeMinted",
      "type": "event"
    },
    {
      "anonymous": false,
      "inputs": [
        {
          "indexed": false,
          "internalType": "uint256",
          "name": "_fromTokenId",
          "type": "uint256"
        },
        {
          "indexed": false,
          "internalType": "uint256",
          "name": "_toTokenId",
          "type": "uint256"
        }
      ],
      "name": "BatchMetadataUpdate",
      "type": "event"
    },
    {
      "anonymous": false,
      "inputs": [
        {
          "indexed": true,
          "internalType": "address",
          "name": "user",
          "type": "address"
        },
        {
          "indexed": true,
          "internalType": "uint256",
          "name": "challengeId",
          "type": "uint256"
        },
        {
          "indexed": false,
          "internalType": "bytes32",
          "name": "proofHash",
          "type": "bytes32"
        },
        {
          "indexed": false,
          "internalType": "uint256",
          "name": "timestamp",
          "type": "uint256"
        }
      ],
      "name": "ChallengeCompleted",
      "type": "event"
    },
    {
      "anonymous": false,
      "inputs": [
        {
          "indexed": false,
          "internalType": "uint256",
          "name": "_tokenId",
          "type": "uint256"
        }
      ],
      "name": "MetadataUpdate",
      "type": "event"
    },
    {
      "anonymous": false,
      "inputs": [
        {
          "indexed": true,
          "internalType": "bytes32",
          "name": "role",
          "type": "bytes32"
        },
        {
          "indexed": true,
          "internalType": "bytes32",
          "name": "previousAdminRole",
          "type": "bytes32"
        },
        {
          "indexed": true,
          "internalType": "bytes32",
          "name": "newAdminRole",
          "type": "bytes32"
        }
      ],
      "name": "RoleAdminChanged",
      "type": "event"
    },
    {
      "anonymous": false,
      "inputs": [
        {
          "indexed": true,
          "internalType": "bytes32",
          "name": "role",
          "type": "bytes32"
        },
        {
          "indexed": true,
          "internalType": "address",
          "name": "account",
          "type": "address"
        },
        {
          "indexed": true,
          "internalType": "address",
          "name": "sender",
          "type": "address"
        }
      ],
      "name": "RoleGranted",
      "type": "event"
    },
    {
      "anonymous": false,
      "inputs": [
        {
          "indexed": true,
          "internalType": "bytes32",
          "name": "role",
          "type": "bytes32"
        },
        {
          "indexed": true,
          "internalType": "address",
          "name": "account",
          "type": "address"
        },
        {
          "indexed": true,
          "internalType": "address",
          "name": "sender",
          "type": "address"
        }
      ],
      "name": "RoleRevoked",
      "type": "event"
    },
    {
      "anonymous": false,
      "inputs": [
        {
          "indexed": true,
          "internalType": "address",
          "name": "from",
          "type": "address"
        },
        {
          "indexed": true,
          "internalType": "address",
          "name": "to",
          "type": "address"
        },
        {
          "indexed": true,
          "internalType": "uint256",
          "name": "tokenId",
          "type": "uint256"
        }
      ],
      "name": "Transfer",
      "type": "event"
    },
    {
      "inputs": [],
      "name": "DEFAULT_ADMIN_ROLE",
      "outputs": [
        {
          "internalType": "bytes32",
          "name": "",
          "type": "bytes32"
        }
      ],
      "stateMutability": "view",
      "type": "function"
    },
    {
      "inputs": [],
      "name": "MINTER_ROLE",
      "outputs": [
        {
          "internalType": "bytes32",
          "name": "",
          "type": "bytes32"
        }
      ],
      "stateMutability": "view",
      "type": "function"
    },
    {
      "inputs": [
        {
          "internalType": "address",
          "name": "to",
          "type": "address"
        },
        {
          "internalType": "uint256",
          "name": "tokenId",
          "type": "uint256"
        }
      ],
      "name": "approve",
      "outputs": [],
      "stateMutability": "nonpayable",
      "type": "function"
    },
    {
      "inputs": [
        {
          "internalType": "uint256",
          "name": "",
          "type": "uint256"
        }
      ],
      "name": "badges",
      "outputs": [
        {
          "internalType": "uint256",
          "name": "challengeId",
          "type": "uint256"
        },
        {
          "internalType": "uint256",
          "name": "completedAt",
          "type": "uint256"
        },
        {
          "internalType": "bytes32",
          "name": "proofHash",
          "type": "bytes32"
        }
      ],
      "stateMutability": "view",
      "type": "function"
    },
    {
      "inputs": [
        {
          "internalType": "address",
          "name": "owner",
          "type": "address"
        }
      ],
      "name": "balanceOf",
      "outputs": [
        {
          "internalType": "uint256",
          "name": "",
          "type": "uint256"
        }
      ],
      "stateMutability": "view",
      "type": "function"
    },
    {
      "inputs": [
        {
          "internalType": "uint256",
          "name": "",
          "type": "uint256"
        }
      ],
      "name": "challengeCompletions",
      "outputs": [
        {
          "internalType": "uint256",
          "name": "",
          "type": "uint256"
        }
      ],
      "stateMutability": "view",
      "type": "function"
    },
    {
      "inputs": [
        {
          "internalType": "uint256",
          "name": "tokenId",
          "type": "uint256"
        }
      ],
      "name": "getApproved",
      "outputs": [
        {
          "internalType": "address",
          "name": "",
          "type": "address"
        }
      ],
      "stateMutability": "view",
      "type": "function"
    },
    {
      "inputs": [
        {
          "internalType": "uint256",
          "name": "tokenId",
          "type": "uint256"
        }
      ],
      "name": "getBadgeInfo",
      "outputs": [
        {
          "internalType": "uint256",
          "name": "challengeId",
          "type": "uint256"
        },
        {
          "internalType": "uint256",
          "name": "completedAt",
          "type": "uint256"
        },
        {
          "internalType": "bytes32",
          "name": "proofHash",
          "type": "bytes32"
        }
      ],
      "stateMutability": "view",
      "type": "function"
    },
    {
      "inputs": [
        {
          "internalType": "address",
          "name": "owner",
          "type": "address"
        }
      ],
      "name": "getBadgesOf",
      "outputs": [
        {
          "internalType": "uint256[]",
          "name": "",
          "type": "uint256[]"
        }
      ],
      "stateMutability": "view",
      "type": "function"
    },
    {
      "inputs": [
        {
          "internalType": "bytes32",
          "name": "role",
          "type": "bytes32"
        }
      ],
      "name": "getRoleAdmin",
      "outputs": [
        {
          "internalType": "bytes32",
          "name": "",
          "type": "bytes32"
        }
      ],
      "stateMutability": "view",
      "type": "function"
    },
    {
      "inputs": [
        {
          "internalType": "address",
          "name": "account",
          "type": "address"
        }
      ],
      "name": "grantMinterRole",
      "outputs": [],
      "stateMutability": "nonpayable",
      "type": "function"
    },
    {
      "inputs": [
        {
          "internalType": "bytes32",
          "name": "role",
          "type": "bytes32"
        },
        {
          "internalType": "address",
          "name": "account",
          "type": "address"
        }
      ],
      "name": "grantRole",
      "outputs": [],
      "stateMutability": "nonpayable",
      "type": "function"
    },
    {
      "inputs": [
        {
          "internalType": "address",
          "name": "user",
          "type": "address"
        },
        {
          "internalType": "uint256",
          "name": "challengeId",
          "type": "uint256"
        }
      ],
      "name": "hasChallengeBadge",
      "outputs": [
        {
          "internalType": "bool",
          "name": "",
          "type": "bool"
        }
      ],
      "stateMutability": "view",
      "type": "function"
    },
    {
      "inputs": [
        {
          "internalType": "bytes32",
          "name": "role",
          "type": "bytes32"
        },
        {
          "internalType": "address",
          "name": "account",
          "type": "address"
        }
      ],
      "name": "hasRole",
      "outputs": [
        {
          "internalType": "bool",
          "name": "",
          "type": "bool"
        }
      ],
      "stateMutability": "view",
      "type": "function"
    },
    {
      "inputs": [
        {
          "internalType": "address",
          "name": "owner",
          "type": "address"
        },
        {
          "internalType": "address",
          "name": "operator",
          "type": "address"
        }
      ],
      "name": "isApprovedForAll",
      "outputs": [
        {
          "internalType": "bool",
          "name": "",
          "type": "bool"
        }
      ],
      "stateMutability": "view",
      "type": "function"
    },
    {
      "inputs": [
        {
          "internalType": "address",
          "name": "to",
          "type": "address"
        },
        {
          "internalType": "uint256",
          "name": "challengeId",
          "type": "uint256"
        },
        {
          "internalType": "bytes32",
          "name": "proofHash",
          "type": "bytes32"
        },
        {
          "internalType": "string",
          "name": "uri",
          "type": "string"
        }
      ],
      "name": "mintBadge",
      "outputs": [
        {
          "internalType": "uint256",
          "name": "",
          "type": "uint256"
        }
      ],
      "stateMutability": "nonpayable",
      "type": "function"
    },
    {
      "inputs": [],
      "name": "name",
      "outputs": [
        {
          "internalType": "string",
          "name": "",
          "type": "string"
        }
      ],
      "stateMutability": "view",
      "type": "function"
    },
    {
      "inputs": [
        {
          "internalType": "uint256",
          "name": "tokenId",
          "type": "uint256"
        }
      ],
      "name": "ownerOf",
      "outputs": [
        {
          "internalType": "address",
          "name": "",
          "type": "address"
        }
      ],
      "stateMutability": "view",
      "type": "function"
    },
    {
      "inputs": [
        {
          "internalType": "bytes32",
          "name": "role",
          "type": "bytes32"
        },
        {
          "internalType": "address",
          "name": "callerConfirmation",
          "type": "address"
        }
      ],
      "name": "renounceRole",
      "outputs": [],
      "stateMutability": "nonpayable",
      "type": "function"
    },
    {
      "inputs": [
        {
          "internalType": "address",
          "name": "account",
          "type": "address"
        }
      ],
      "name": "revokeMinterRole",
      "outputs": [],
      "stateMutability": "nonpayable",
      "type": "function"
    },
    {
      "inputs": [
        {
          "internalType": "bytes32",
          "name": "role",
          "type": "bytes32"
        },
        {
          "internalType": "address",
          "name": "account",
          "type": "address"
        }
      ],
      "name": "revokeRole",
      "outputs": [],
      "stateMutability": "nonpayable",
      "type": "function"
    },
    {
      "inputs": [
        {
          "internalType": "address",
          "name": "from",
          "type": "address"
        },
        {
          "internalType": "address",
          "name": "to",
          "type": "address"
        },
        {
          "internalType": "uint256",
          "name": "tokenId",
          "type": "uint256"
        }
      ],
      "name": "safeTransferFrom",
      "outputs": [],
      "stateMutability": "nonpayable",
      "type": "function"
    },
    {
      "inputs": [
        {
          "internalType": "address",
          "name": "from",
          "type": "address"
        },
        {
          "internalType": "address",
          "name": "to",
          "type": "address"
        },
        {
          "internalType": "uint256",
          "name": "tokenId",
          "type": "uint256"
        },
        {
          "internalType": "bytes",
          "name": "data",
          "type": "bytes"
        }
      ],
      "name": "safeTransferFrom",
      "outputs": [],
      "stateMutability": "nonpayable",
      "type": "function"
    },
    {
      "inputs": [
        {
          "internalType": "address",
          "name": "operator",
          "type": "address"
        },
        {
          "internalType": "bool",
          "name": "approved",
          "type": "bool"
        }
      ],
      "name": "setApprovalForAll",
      "outputs": [],
      "stateMutability": "nonpayable",
      "type": "function"
    },
    {
      "inputs": [
        {
          "internalType": "bytes4",
          "name": "interfaceId",
          "type": "bytes4"
        }
      ],
      "name": "supportsInterface",
      "outputs": [
        {
          "internalType": "bool",
          "name": "",
          "type": "bool"
        }
      ],
      "stateMutability": "view",
      "type": "function"
    },
    {
      "inputs": [],
      "name": "symbol",
      "outputs": [
        {
          "internalType": "string",
          "name": "",
          "type": "string"
        }
      ],
      "stateMutability": "view",
      "type": "function"
    },
    {
      "inputs": [
        {
          "internalType": "uint256",
          "name": "index",
          "type": "uint256"
        }
      ],
      "name": "tokenByIndex",
      "outputs": [
        {
          "internalType": "uint256",
          "name": "",
          "type": "uint256"
        }
      ],
      "stateMutability": "view",
      "type": "function"
    },
    {
      "inputs": [
        {
          "internalType": "address",
          "name": "owner",
          "type": "address"
        },
        {
          "internalType": "uint256",
          "name": "index",
          "type": "uint256"
        }
      ],
      "name": "tokenOfOwnerByIndex",
      "outputs": [
        {
          "internalType": "uint256",
          "name": "",
          "type": "uint256"
        }
      ],
      "stateMutability": "view",
      "type": "function"
    },
    {
      "inputs": [
        {
          "internalType": "uint256",
          "name": "tokenId",
          "type": "uint256"
        }
      ],
      "name": "tokenURI",
      "outputs": [
        {
          "internalType": "string",
          "name": "",
          "type": "string"
        }
      ],
      "stateMutability": "view",
      "type": "function"
    },
    {
      "inputs": [],
      "name": "totalMinted",
      "outputs": [
        {
          "internalType": "uint256",
          "name": "",
          "type": "uint256"
        }
      ],
      "stateMutability": "view",
      "type": "function"
    },
    {
      "inputs": [],
      "name": "totalSupply",
      "outputs": [
        {
          "internalType": "uint256",
          "name": "",
          "type": "uint256"
        }
      ],
      "stateMutability": "view",
      "type": "function"
    },
    {
      "inputs": [
        {
          "internalType": "address",
          "name": "from",
          "type": "address"
        },
        {
          "internalType": "address",
          "name": "to",
          "type": "address"
        },
        {
          "internalType": "uint256",
          "name": "tokenId",
          "type": "uint256"
        }
      ],
      "name": "transferFrom",
      "outputs": [],
      "stateMutability": "nonpayable",
      "type": "function"
    },
    {
      "inputs": [
        {
          "internalType": "address",
          "name": "",
          "type": "address"
        },
        {
          "internalType": "uint256",
          "name": "",
          "type": "uint256"
        }
      ],
      "name": "userChallengeBadges",
      "outputs": [
        {
          "internalType": "bool",
          "name": "",
          "type": "bool"
        }
      ],
      "stateMutability": "view",
      "type": "function"
    }
  ],
  "bytecode": "0x60806040523480156200001157600080fd5b506040518060400160405280600d81526020016c50524f56454c5420426164676560981b81525060405180604001604052806005815260200164141495931560da1b815250816000908162000067919062000214565b50600162000076828262000214565b506200008891506000905033620000bc565b50620000b57f9f2df0fed2c77648de5860a4cc508cd0818c85b8b8a1ab4ceeef8d981c8956a633620000bc565b50620002e0565b6000828152600b602090815260408083206001600160a01b038516845290915281205460ff1662000165576000838152600b602090815260408083206001600160a01b03861684529091529020805460ff191660011790556200011c3390565b6001600160a01b0316826001600160a01b0316847f2f8788117e7eff1d82e926ec794901d17c78024a50270940304540a733656f0d60405160405180910390a450600162000169565b5060005b92915050565b634e487b7160e01b600052604160045260246000fd5b600181811c908216806200019a57607f821691505b602082108103620001bb57634e487b7160e01b600052602260045260246000fd5b50919050565b601f8211156200020f57600081815260208120601f850160051c81016020861015620001ea5750805b601f850160051c820191505b818110156200020b57828155600101620001f6565b5050505b505050565b81516001600160401b038111156200023057620002306200016f565b620002488162000241845462000185565b84620001c1565b602080601f831160018114620002805760008415620002675750858301515b600019600386901b1c1916600185901b1785556200020b565b600085815260208120601f198616915b82811015620002b15788860151825594840194600190910190840162000290565b5085821015620002d05787850151600019600388901b60f8161c191681555b5050505050600190811b01905550565b611f7280620002f06000396000f3fe608060405234801561001057600080fd5b50600436106101fb5760003560e01c806365f785841161011a578063a2309ff8116100ad578063d53913931161007c578063d5391393146104b8578063d547741f146104cd578063e1e651d8146104e0578063e2045b5e14610500578063e985e9c51461051357600080fd5b8063a2309ff81461045c578063b1d7df7f14610464578063b88d4fde14610492578063c87b56dd146104a557600080fd5b806395d89b41116100e957806395d89b41146103ef57806398e36d8b146103f7578063a217fddf14610441578063a22cb4651461044957600080fd5b806365f785841461037d57806369e2f0fb146103b657806370a08231146103c957806391d14854146103dc57600080fd5b80632f2ff15d1161019257806342842e0e1161016157806342842e0e146103315780634f6ccce714610344578063515328a0146103575780636352211e1461036a57600080fd5b80632f2ff15d146102e55780632f745c59146102f857806336568abe1461030b5780633dd1eb611461031e57600080fd5b80630ec2e2f5116101ce5780630ec2e2f51461027d57806318160ddd1461029d57806323b872dd146102af578063248a9ca3146102c257600080fd5b806301ffc9a71461020057806306fdde0314610228578063081812fc1461023d578063095ea7b314610268575b600080fd5b61021361020e36600461196f565b610526565b60405190151581526020015b60405180910390f35b610230610537565b60405161021f91906119dc565b61025061024b3660046119ef565b6105c9565b6040516001600160a01b03909116815260200161021f565b61027b610276366004611a24565b6105f2565b005b61029061028b366004611a4e565b610601565b60405161021f9190611a69565b6009545b60405190815260200161021f565b61027b6102bd366004611aad565b6106a3565b6102a16102d03660046119ef565b6000908152600b602052604090206001015490565b61027b6102f3366004611ae9565b610733565b6102a1610306366004611a24565b610758565b61027b610319366004611ae9565b6107bd565b61027b61032c366004611a4e565b6107f5565b61027b61033f366004611aad565b610818565b6102a16103523660046119ef565b610833565b6102a1610365366004611ba1565b61088c565b6102506103783660046119ef565b610a6b565b61021361038b366004611a24565b6001600160a01b03919091166000908152600f60209081526040808320938352929052205460ff1690565b61027b6103c4366004611a4e565b610a76565b6102a16103d7366004611a4e565b610a99565b6102136103ea366004611ae9565b610ae1565b610230610b0c565b6104266104053660046119ef565b600d6020526000908152604090208054600182015460029092015490919083565b6040805193845260208401929092529082015260600161021f565b6102a1600081565b61027b610457366004611c16565b610b1b565b600c546102a1565b610213610472366004611a24565b600f60209081526000928352604080842090915290825290205460ff1681565b61027b6104a0366004611c52565b610b26565b6102306104b33660046119ef565b610b3e565b6102a1600080516020611f1d83398151915281565b61027b6104db366004611ae9565b610b49565b6102a16104ee3660046119ef565b600e6020526000908152604090205481565b61042661050e3660046119ef565b610b6e565b610213610521366004611ca2565b610c1d565b600061053182610c4b565b92915050565b60606000805461054690611ccc565b80601f016020809104026020016040519081016040528092919081815260200182805461057290611ccc565b80156105bf5780601f10610594576101008083540402835291602001916105bf565b820191906000526020600020905b8154815290600101906020018083116105a257829003601f168201915b5050505050905090565b60006105d482610c70565b506000828152600460205260409020546001600160a01b0316610531565b6105fd828233610ca9565b5050565b6060600061060e83610a99565b905060008167ffffffffffffffff81111561062b5761062b611b15565b604051908082528060200260200182016040528015610654578160200160208202803683370190505b50905060005b8281101561069b5761066c8582610758565b82828151811061067e5761067e611d06565b60209081029190910101528061069381611d32565b91505061065a565b509392505050565b6001600160a01b0382166106d257604051633250574960e11b8152600060048201526024015b60405180910390fd5b60006106df838333610cb6565b9050836001600160a01b0316816001600160a01b03161461072d576040516364283d7b60e01b81526001600160a01b03808616600483015260248201849052821660448201526064016106c9565b50505050565b6000828152600b602052604090206001015461074e81610ccb565b61072d8383610cd8565b600061076383610a99565b82106107945760405163295f44f760e21b81526001600160a01b0384166004820152602481018390526044016106c9565b506001600160a01b03919091166000908152600760209081526040808320938352929052205490565b6001600160a01b03811633146107e65760405163334bd91960e11b815260040160405180910390fd5b6107f08282610d6c565b505050565b600061080081610ccb565b6105fd600080516020611f1d83398151915283610733565b6107f083838360405180602001604052806000815250610b26565b600061083e60095490565b82106108675760405163295f44f760e21b815260006004820152602481018390526044016106c9565b6009828154811061087a5761087a611d06565b90600052602060002001549050919050565b6000600080516020611f1d8339815191526108a681610ccb565b6001600160a01b0386166000908152600f6020908152604080832088845290915290205460ff161561092a5760405162461bcd60e51b815260206004820152602760248201527f426164676520616c7265616479206d696e74656420666f722074686973206368604482015266616c6c656e676560c81b60648201526084016106c9565b600c80546000918261093b83611d32565b91905055905061094b8782610dd9565b6109558185610df3565b604080516060810182528781524260208083019182528284018981526000868152600d835285812094518555925160018086019190915590516002909401939093556001600160a01b038b168252600f81528382208a83528152838220805460ff1916909317909255600e9091529081208054916109d283611d32565b91905055508581886001600160a01b03167f6351c47a3232dfa9b17412dce304923271e9df3508e70d1a4c8b1824ccf480d58888604051610a14929190611d4b565b60405180910390a46040805186815242602082015287916001600160a01b038a16917f4965fd9f673ffee1afb02231e0fe1286491be3e6d3b065b2dc5db5f1028d4d66910160405180910390a39695505050505050565b600061053182610c70565b6000610a8181610ccb565b6105fd600080516020611f1d83398151915283610b49565b60006001600160a01b038216610ac5576040516322718ad960e21b8152600060048201526024016106c9565b506001600160a01b031660009081526003602052604090205490565b6000918252600b602090815260408084206001600160a01b0393909316845291905290205460ff1690565b60606001805461054690611ccc565b6105fd338383610e43565b610b318484846106a3565b61072d3385858585610ee2565b60606105318261100d565b6000828152600b6020526040902060010154610b6481610ccb565b61072d8383610d6c565b6000808080610b92856000908152600260205260409020546001600160a01b031690565b6001600160a01b031603610bdf5760405162461bcd60e51b8152602060048201526014602482015273151bdad95b88191bd95cc81b9bdd08195e1a5cdd60621b60448201526064016106c9565b5050506000818152600d6020908152604091829020825160608101845281548082526001830154938201849052600290920154930183905293909250565b6001600160a01b03918216600090815260056020908152604080832093909416825291909152205460ff1690565b60006001600160e01b03198216637965db0b60e01b1480610531575061053182611116565b6000818152600260205260408120546001600160a01b03168061053157604051637e27328960e01b8152600481018490526024016106c9565b6107f0838383600161113b565b6000610cc3848484611241565b949350505050565b610cd5813361130e565b50565b6000610ce48383610ae1565b610d64576000838152600b602090815260408083206001600160a01b03861684529091529020805460ff19166001179055610d1c3390565b6001600160a01b0316826001600160a01b0316847f2f8788117e7eff1d82e926ec794901d17c78024a50270940304540a733656f0d60405160405180910390a4506001610531565b506000610531565b6000610d788383610ae1565b15610d64576000838152600b602090815260408083206001600160a01b0386168085529252808320805460ff1916905551339286917ff6391f5c32d9c69d2a47ea670b442974b53935d1edc7fd64eb21e047a839171b9190a4506001610531565b6105fd828260405180602001604052806000815250611347565b6000828152600660205260409020610e0b8282611daa565b506040518281527ff8e1a15aba9398e019f0b49df1a4fde98ee17ae345cb5f6b5e2c27f5033e8ce79060200160405180910390a15050565b6001600160a01b038216610e7557604051630b61174360e31b81526001600160a01b03831660048201526024016106c9565b6001600160a01b03838116600081815260056020908152604080832094871680845294825291829020805460ff191686151590811790915591519182527f17307eab39ab6107e8899845ad3d59bd9653f200f220920489ca2b5937696c31910160405180910390a3505050565b6001600160a01b0383163b1561100657604051630a85bd0160e11b81526001600160a01b0384169063150b7a0290610f24908890889087908790600401611e6a565b6020604051808303816000875af1925050508015610f5f575060408051601f3d908101601f19168201909252610f5c91810190611ea7565b60015b610fc8573d808015610f8d576040519150601f19603f3d011682016040523d82523d6000602084013e610f92565b606091505b508051600003610fc057604051633250574960e11b81526001600160a01b03851660048201526024016106c9565b805160208201fd5b6001600160e01b03198116630a85bd0160e11b1461100457604051633250574960e11b81526001600160a01b03851660048201526024016106c9565b505b5050505050565b606061101882610c70565b506000828152600660205260408120805461103290611ccc565b80601f016020809104026020016040519081016040528092919081815260200182805461105e90611ccc565b80156110ab5780601f10611080576101008083540402835291602001916110ab565b820191906000526020600020905b81548152906001019060200180831161108e57829003601f168201915b5050505050905060006110c960408051602081019091526000815290565b905080516000036110db575092915050565b81511561110d5780826040516020016110f5929190611ec4565b60405160208183030381529060405292505050919050565b610cc38461135f565b60006001600160e01b0319821663780e9d6360e01b14806105315750610531826113d4565b808061114f57506001600160a01b03821615155b1561121157600061115f84610c70565b90506001600160a01b0383161580159061118b5750826001600160a01b0316816001600160a01b031614155b801561119e575061119c8184610c1d565b155b156111c75760405163a9fbf51f60e01b81526001600160a01b03841660048201526024016106c9565b811561120f5783856001600160a01b0316826001600160a01b03167f8c5be1e5ebec7d5bd14f71427d1e84f3dd0314c0f7b2291e5b200ac8c7c3b92560405160405180910390a45b505b5050600090815260046020526040902080546001600160a01b0319166001600160a01b0392909216919091179055565b60008061124f8585856113f9565b90506001600160a01b0381166112ac576112a784600980546000838152600a60205260408120829055600182018355919091527f6e1540171b6c0c960b71a7020d9f60077f6af931a8bbf590da0223dacf75c7af0155565b6112cf565b846001600160a01b0316816001600160a01b0316146112cf576112cf81856114f2565b6001600160a01b0385166112eb576112e684611573565b610cc3565b846001600160a01b0316816001600160a01b031614610cc357610cc38585611622565b6113188282610ae1565b6105fd5760405163e2517d3f60e01b81526001600160a01b0382166004820152602481018390526044016106c9565b6113518383611672565b6107f0336000858585610ee2565b606061136a82610c70565b50600061138260408051602081019091526000815290565b905060008151116113a257604051806020016040528060008152506113cd565b806113ac846116d7565b6040516020016113bd929190611ec4565b6040516020818303038152906040525b9392505050565b60006001600160e01b03198216632483248360e11b148061053157506105318261176a565b6000828152600260205260408120546001600160a01b0390811690831615611426576114268184866117ba565b6001600160a01b038116156114645761144360008560008061113b565b6001600160a01b038116600090815260036020526040902080546000190190555b6001600160a01b03851615611493576001600160a01b0385166000908152600360205260409020805460010190555b60008481526002602052604080822080546001600160a01b0319166001600160a01b0389811691821790925591518793918516917fddf252ad1be2c89b69c2b068fc378daa952ba7f163c4a11628f55a4df523b3ef91a4949350505050565b60006114fd83610a99565b6000838152600860209081526040808320546001600160a01b038816845260079092529091209192509081831461155457600083815260208281526040808320548584528184208190558352600890915290208290555b6000938452600860209081526040808620869055938552525081205550565b60095460009061158590600190611ef3565b6000838152600a6020526040812054600980549394509092849081106115ad576115ad611d06565b9060005260206000200154905080600983815481106115ce576115ce611d06565b6000918252602080832090910192909255828152600a9091526040808220849055858252812055600980548061160657611606611f06565b6001900381819060005260206000200160009055905550505050565b6000600161162f84610a99565b6116399190611ef3565b6001600160a01b039093166000908152600760209081526040808320868452825280832085905593825260089052919091209190915550565b6001600160a01b03821661169c57604051633250574960e11b8152600060048201526024016106c9565b60006116aa83836000610cb6565b90506001600160a01b038116156107f0576040516339e3563760e11b8152600060048201526024016106c9565b606060006116e48361181e565b600101905060008167ffffffffffffffff81111561170457611704611b15565b6040519080825280601f01601f19166020018201604052801561172e576020820181803683370190505b5090508181016020015b600019016f181899199a1a9b1b9c1cb0b131b232b360811b600a86061a8153600a850494508461173857509392505050565b60006001600160e01b031982166380ac58cd60e01b148061179b57506001600160e01b03198216635b5e139f60e01b145b8061053157506301ffc9a760e01b6001600160e01b0319831614610531565b6117c58383836118f6565b6107f0576001600160a01b0383166117f357604051637e27328960e01b8152600481018290526024016106c9565b60405163177e802f60e01b81526001600160a01b0383166004820152602481018290526044016106c9565b60008072184f03e93ff9f4daa797ed6e38ed64bf6a1f0160401b831061185d5772184f03e93ff9f4daa797ed6e38ed64bf6a1f0160401b830492506040015b6d04ee2d6d415b85acef81000000008310611889576d04ee2d6d415b85acef8100000000830492506020015b662386f26fc1000083106118a757662386f26fc10000830492506010015b6305f5e10083106118bf576305f5e100830492506008015b61271083106118d357612710830492506004015b606483106118e5576064830492506002015b600a83106105315760010192915050565b60006001600160a01b03831615801590610cc35750826001600160a01b0316846001600160a01b0316148061193057506119308484610c1d565b80610cc35750506000908152600460205260409020546001600160a01b03908116911614919050565b6001600160e01b031981168114610cd557600080fd5b60006020828403121561198157600080fd5b81356113cd81611959565b60005b838110156119a757818101518382015260200161198f565b50506000910152565b600081518084526119c881602086016020860161198c565b601f01601f19169290920160200192915050565b6020815260006113cd60208301846119b0565b600060208284031215611a0157600080fd5b5035919050565b80356001600160a01b0381168114611a1f57600080fd5b919050565b60008060408385031215611a3757600080fd5b611a4083611a08565b946020939093013593505050565b600060208284031215611a6057600080fd5b6113cd82611a08565b6020808252825182820181905260009190848201906040850190845b81811015611aa157835183529284019291840191600101611a85565b50909695505050505050565b600080600060608486031215611ac257600080fd5b611acb84611a08565b9250611ad960208501611a08565b9150604084013590509250925092565b60008060408385031215611afc57600080fd5b82359150611b0c60208401611a08565b90509250929050565b634e487b7160e01b600052604160045260246000fd5b600067ffffffffffffffff80841115611b4657611b46611b15565b604051601f8501601f19908116603f01168101908282118183101715611b6e57611b6e611b15565b81604052809350858152868686011115611b8757600080fd5b858560208301376000602087830101525050509392505050565b60008060008060808587031215611bb757600080fd5b611bc085611a08565b93506020850135925060408501359150606085013567ffffffffffffffff811115611bea57600080fd5b8501601f81018713611bfb57600080fd5b611c0a87823560208401611b2b565b91505092959194509250565b60008060408385031215611c2957600080fd5b611c3283611a08565b915060208301358015158114611c4757600080fd5b809150509250929050565b60008060008060808587031215611c6857600080fd5b611c7185611a08565b9350611c7f60208601611a08565b925060408501359150606085013567ffffffffffffffff811115611bea57600080fd5b60008060408385031215611cb557600080fd5b611cbe83611a08565b9150611b0c60208401611a08565b600181811c90821680611ce057607f821691505b602082108103611d0057634e487b7160e01b600052602260045260246000fd5b50919050565b634e487b7160e01b600052603260045260246000fd5b634e487b7160e01b600052601160045260246000fd5b600060018201611d4457611d44611d1c565b5060010190565b828152604060208201526000610cc360408301846119b0565b601f8211156107f057600081815260208120601f850160051c81016020861015611d8b5750805b601f850160051c820191505b8181101561100457828155600101611d97565b815167ffffffffffffffff811115611dc457611dc4611b15565b611dd881611dd28454611ccc565b84611d64565b602080601f831160018114611e0d5760008415611df55750858301515b600019600386901b1c1916600185901b178555611004565b600085815260208120601f198616915b82811015611e3c57888601518255948401946001909101908401611e1d565b5085821015611e5a5787850151600019600388901b60f8161c191681555b5050505050600190811b01905550565b6001600160a01b0385811682528416602082015260408101839052608060608201819052600090611e9d908301846119b0565b9695505050505050565b600060208284031215611eb957600080fd5b81516113cd81611959565b60008351611ed681846020880161198c565b835190830190611eea81836020880161198c565b01949350505050565b8181038181111561053157610531611d1c565b634e487b7160e01b600052603160045260246000fdfe9f2df0fed2c77648de5860a4cc508cd0818c85b8b8a1ab4ceeef8d981c8956a6a2646970667358221220e0d1c2e24d3cfa15a20a4271ecda7553e172517b23b6ac85569d01641822a09e64736f6c63430008140033",
  "linkReferences": {},
  "deployedLinkReferences": {}
}