{
  "_format": "hh-sol-artifact-1",
  "contractName": "ProveltStaking",
  "sourceName": "src/ProveltStaking.sol",
  "abi": [
    {
      "inputs": [
        {
          "internalType": "address",
          "name": "_badgeContract",
          "type": "address"
        },
        {
          "internalType": "address",
          "name": "_rewardToken",
          "type": "address"
        }
      ],
      "stateMutability": "nonpayable",
      "type": "constructor"
    },
    {
      "inputs": [
        {
          "internalType": "address",
          "name": "owner",
          "type": "address"
        }
      ],
      "name": "OwnableInvalidOwner",
      "type": "error"
    },
    {
      "inputs": [
        {
          "internalType": "address",
          "name": "account",
          "type": "address"
        }
      ],
      "name": "OwnableUnauthorizedAccount",
      "type": "error"
    },
    {
      "inputs": [],
      "name": "ReentrancyGuardReentrantCall",
      "type": "error"
    },
    {
      "anonymous": false,
      "inputs": [
        {
          "indexed": true,
          "internalType": "address",
          "name": "previousOwner",
          "type": "address"
        },
        {
          "indexed": true,
          "internalType": "address",
          "name": "newOwner",
          "type": "address"
        }
      ],
      "name": "OwnershipTransferred",
      "type": "event"
    },
    {
      "anonymous": false,
      "inputs": [
        {
          "indexed": true,
          "internalType": "address",
          "name": "user",
          "type": "address"
        },
        {
          "indexed": false,
          "internalType": "uint256",
          "name": "amount",
          "type": "uint256"
        }
      ],
      "name": "RewardsClaimed",
      "type": "event"
    },
    {
      "anonymous": false,
      "inputs": [
        {
          "indexed": true,
          "internalType": "address",
          "name": "user",
          "type": "address"
        },
        {
          "indexed": true,
          "internalType": "uint256",
          "name": "tokenId",
          "type": "uint256"
        },
        {
          "indexed": false,
          "internalType": "uint8",
          "name": "difficulty",
          "type": "uint8"
        }
      ],
      "name": "Staked",
      "type": "event"
    },
    {
      "anonymous": false,
      "inputs": [
        {
          "indexed": true,
          "internalType": "address",
          "name": "user",
          "type": "address"
        },
        {
          "indexed": true,
          "internalType": "uint256",
          "name": "tokenId",
          "type": "uint256"
        },
        {
          "indexed": false,
          "internalType": "uint256",
          "name": "rewards",
          "type": "uint256"
        }
      ],
      "name": "Unstaked",
      "type": "event"
    },
    {
      "inputs": [],
      "name": "badgeContract",
      "outputs": [
        {
          "internalType": "contract IERC721",
          "name": "",
          "type": "address"
        }
      ],
      "stateMutability": "view",
      "type": "function"
    },
    {
      "inputs": [],
      "name": "baseRewardRate",
      "outputs": [
        {
          "internalType": "uint256",
          "name": "",
          "type": "uint256"
        }
      ],
      "stateMutability": "view",
      "type": "function"
    },
    {
      "inputs": [],
      "name": "claimAllRewards",
      "outputs": [],
      "stateMutability": "nonpayable",
      "type": "function"
    },
    {
      "inputs": [
        {
          "internalType": "uint256",
          "name": "tokenId",
          "type": "uint256"
        }
      ],
      "name": "claimRewards",
      "outputs": [],
      "stateMutability": "nonpayable",
      "type": "function"
    },
    {
      "inputs": [
        {
          "internalType": "uint8",
          "name": "",
          "type": "uint8"
        }
      ],
      "name": "difficultyMultiplier",
      "outputs": [
        {
          "internalType": "uint256",
          "name": "",
          "type": "uint256"
        }
      ],
      "stateMutability": "view",
      "type": "function"
    },
    {
      "inputs": [
        {
          "internalType": "address",
          "name": "user",
          "type": "address"
        }
      ],
      "name": "getStakedTokens",
      "outputs": [
        {
          "internalType": "uint256[]",
          "name": "",
          "type": "uint256[]"
        }
      ],
      "stateMutability": "view",
      "type": "function"
    },
    {
      "inputs": [
        {
          "internalType": "address",
          "name": "",
          "type": "address"
        },
        {
          "internalType": "address",
          "name": "",
          "type": "address"
        },
        {
          "internalType": "uint256",
          "name": "",
          "type": "uint256"
        },
        {
          "internalType": "bytes",
          "name": "",
          "type": "bytes"
        }
      ],
      "name": "onERC721Received",
      "outputs": [
        {
          "internalType": "bytes4",
          "name": "",
          "type": "bytes4"
        }
      ],
      "stateMutability": "nonpayable",
      "type": "function"
    },
    {
      "inputs": [],
      "name": "owner",
      "outputs": [
        {
          "internalType": "address",
          "name": "",
          "type": "address"
        }
      ],
      "stateMutability": "view",
      "type": "function"
    },
    {
      "inputs": [
        {
          "internalType": "uint256",
          "name": "tokenId",
          "type": "uint256"
        }
      ],
      "name": "pendingRewards",
      "outputs": [
        {
          "internalType": "uint256",
          "name": "",
          "type": "uint256"
        }
      ],
      "stateMutability": "view",
      "type": "function"
    },
    {
      "inputs": [],
      "name": "renounceOwnership",
      "outputs": [],
      "stateMutability": "nonpayable",
      "type": "function"
    },
    {
      "inputs": [],
      "name": "rewardToken",
      "outputs": [
        {
          "internalType": "contract IPRVLTToken",
          "name": "",
          "type": "address"
        }
      ],
      "stateMutability": "view",
      "type": "function"
    },
    {
      "inputs": [
        {
          "internalType": "uint256",
          "name": "newRate",
          "type": "uint256"
        }
      ],
      "name": "setBaseRewardRate",
      "outputs": [],
      "stateMutability": "nonpayable",
      "type": "function"
    },
    {
      "inputs": [
        {
          "internalType": "uint8",
          "name": "difficulty",
          "type": "uint8"
        },
        {
          "internalType": "uint256",
          "name": "multiplier",
          "type": "uint256"
        }
      ],
      "name": "setDifficultyMultiplier",
      "outputs": [],
      "stateMutability": "nonpayable",
      "type": "function"
    },
    {
      "inputs": [
        {
          "internalType": "uint256",
          "name": "tokenId",
          "type": "uint256"
        },
        {
          "internalType": "uint8",
          "name": "difficulty",
          "type": "uint8"
        }
      ],
      "name": "stake",
      "outputs": [],
      "stateMutability": "nonpayable",
      "type": "function"
    },
    {
      "inputs": [
        {
          "internalType": "uint256",
          "name": "",
          "type": "uint256"
        }
      ],
      "name": "stakes",
      "outputs": [
        {
          "internalType": "address",
          "name": "owner",
          "type": "address"
        },
        {
          "internalType": "uint256",
          "name": "stakedAt",
          "type": "uint256"
        },
        {
          "internalType": "uint256",
          "name": "lastClaimAt",
          "type": "uint256"
        },
        {
          "internalType": "uint8",
          "name": "difficulty",
          "type": "uint8"
        }
      ],
      "stateMutability": "view",
      "type": "function"
    },
    {
      "inputs": [
        {
          "internalType": "address",
          "name": "user",
          "type": "address"
        }
      ],
      "name": "totalPendingRewards",
      "outputs": [
        {
          "internalType": "uint256",
          "name": "",
          "type": "uint256"
        }
      ],
      "stateMutability": "view",
      "type": "function"
    },
    {
      "inputs": [
        {
          "internalType": "address",
          "name": "newOwner",
          "type": "address"
        }
      ],
      "name": "transferOwnership",
      "outputs": [],
      "stateMutability": "nonpayable",
      "type": "function"
    },
    {
      "inputs": [
        {
          "internalType": "uint256",
          "name": "tokenId",
          "type": "uint256"
        }
      ],
      "name": "unstake",
      "outputs": [],
      "stateMutability": "nonpayable",
      "type": "function"
    },
    {
      "inputs": [
        {
          "internalType": "address",
          "name": "",
          "type": "address"
        },
        {
          "internalType": "uint256",
          "name": "",
          "type": "uint256"
        }
      ],
      "name": "userStakes",
      "outputs": [
        {
          "internalType": "uint256",
          "name": "",
          "type": "uint256"
        }
      ],
      "stateMutability": "view",
      "type": "function"
    }
  ],
  "bytecode": "0x6080604052650a86cc92e3da6004553480156200001b57600080fd5b506040516200148c3803806200148c8339810160408190526200003e91620001b4565b33806200006557604051631e4fbdf760e01b81526000600482015260240160405180910390fd5b620000708162000147565b506001808055600280546001600160a01b039485166001600160a01b03199182161790915560038054939094169216919091178255600560208190527f1471eb6eb2c5e789fc3de43f8ce62938c7d1836ec861730447e2ada8fd81017b919091557f89832631fb3c3307a103ba2c84ab569c64d6182a18893dcd163f0f1c2090733a919091557fa9bc9a3a348c357ba16b37005d7e6b3236198c0e939f4af8c5f19b8deeb8ebc0556004600052600a7f3eec716f11ba9e820c81ca75eb978ffb45831ef8b7a53e5e422c26008e1ca6d555620001ec565b600080546001600160a01b038381166001600160a01b0319831681178455604051919092169283917f8be0079c531659141344cd1fd0a4f28419497f9722a3daafe3b4186f6b6457e09190a35050565b80516001600160a01b0381168114620001af57600080fd5b919050565b60008060408385031215620001c857600080fd5b620001d38362000197565b9150620001e36020840162000197565b90509250929050565b61129080620001fc6000396000f3fe608060405234801561001057600080fd5b50600436106101215760003560e01c80638d6d4925116100ad578063bf85287811610071578063bf8528781461026c578063d5a44f861461028c578063f0a9abe7146102fb578063f2fde38b1461030e578063f7c618c11461032157600080fd5b80638d6d4925146102015780638da5cb5b1461022c578063afbf34401461023d578063b5d5b5fa14610246578063b9df4f241461025957600080fd5b80632e17de78116100f45780632e17de78146101925780635b6dfd63146101a557806363c28db1146101c6578063715018a6146101e65780637dcb2abf146101ee57600080fd5b80630962ef79146101265780630b83a7271461013b57806310087fb114610143578063150b7a0214610156575b600080fd5b610139610134366004610f6e565b610334565b005b61013961049a565b610139610151366004610f9d565b610688565b610174610164366004610ff4565b630a85bd0160e11b949350505050565b6040516001600160e01b031990911681526020015b60405180910390f35b6101396101a0366004610f6e565b6108dd565b6101b86101b33660046110d4565b610ad5565b604051908152602001610189565b6101d96101d43660046110d4565b610bdd565b60405161018991906110f8565b610139610c49565b6101b86101fc366004610f6e565b610c5b565b600254610214906001600160a01b031681565b6040516001600160a01b039091168152602001610189565b6000546001600160a01b0316610214565b6101b860045481565b6101b861025436600461113c565b610d03565b610139610267366004611168565b610d34565b6101b861027a366004611184565b60056020526000908152604090205481565b6102ce61029a366004610f6e565b60066020526000908152604090208054600182015460028301546003909301546001600160a01b0390921692909160ff1684565b604080516001600160a01b03909516855260208501939093529183015260ff166060820152608001610189565b610139610309366004610f6e565b610dab565b61013961031c3660046110d4565b610db8565b600354610214906001600160a01b031681565b61033c610df3565b600081815260066020526040902080546001600160a01b0316331461039a5760405162461bcd60e51b815260206004820152600f60248201526e2737ba1039ba30b5b29037bbb732b960891b60448201526064015b60405180910390fd5b60006103a583610c5b565b9050600081116103ed5760405162461bcd60e51b81526020600482015260136024820152724e6f207265776172647320746f20636c61696d60681b6044820152606401610391565b4260028301556003546040516340c10f1960e01b8152336004820152602481018390526001600160a01b03909116906340c10f1990604401600060405180830381600087803b15801561043f57600080fd5b505af1158015610453573d6000803e3d6000fd5b50506040518381523392507ffc30cddea38e2bf4d6ea7d3f9ed3b6ad7f176419f4963bd81318067a4aee73fe915060200160405180910390a2505061049760018055565b50565b6104a2610df3565b336000908152600760209081526040808320805482518185028101850190935280835291929091908301828280156104f957602002820191906000526020600020905b8154815260200190600101908083116104e5575b505050505090506000805b825181101561059b5760008382815181106105215761052161119f565b60209081029190910181015160008181526006909252604090912054909150336001600160a01b039091160361058857600061055c82610c5b565b905080156105865760008281526006602052604090204260029091015561058381856111cb565b93505b505b5080610593816111e4565b915050610504565b50600081116105e25760405162461bcd60e51b81526020600482015260136024820152724e6f207265776172647320746f20636c61696d60681b6044820152606401610391565b6003546040516340c10f1960e01b8152336004820152602481018390526001600160a01b03909116906340c10f1990604401600060405180830381600087803b15801561062e57600080fd5b505af1158015610642573d6000803e3d6000fd5b50506040518381523392507ffc30cddea38e2bf4d6ea7d3f9ed3b6ad7f176419f4963bd81318067a4aee73fe915060200160405180910390a2505061068660018055565b565b610690610df3565b60018160ff16101580156106a8575060048160ff1611155b6106e95760405162461bcd60e51b8152602060048201526012602482015271496e76616c696420646966666963756c747960701b6044820152606401610391565b6002546040516331a9108f60e11b81526004810184905233916001600160a01b031690636352211e90602401602060405180830381865afa158015610732573d6000803e3d6000fd5b505050506040513d601f19601f8201168201806040525081019061075691906111fd565b6001600160a01b03161461079e5760405162461bcd60e51b815260206004820152600f60248201526e2737ba103130b233b29037bbb732b960891b6044820152606401610391565b600254604051632142170760e11b8152336004820152306024820152604481018490526001600160a01b03909116906342842e0e90606401600060405180830381600087803b1580156107f057600080fd5b505af1158015610804573d6000803e3d6000fd5b5050604080516080810182523380825242602080840182815284860192835260ff8981166060870181815260008d815260068652898120985189546001600160a01b0319166001600160a01b0390911617895593516001808a019190915595516002890155516003909701805460ff19169790921696909617905583815260078252858120805493840181558152819020909101889055925191825286945092507f8acf475137e0cd74ca7f611d16b1e6383ec9a9c71a8e5b85967781b9c7214d11910160405180910390a36108d960018055565b5050565b6108e5610df3565b600081815260066020908152604091829020825160808101845281546001600160a01b03168082526001830154938201939093526002820154938101939093526003015460ff16606083015233146109715760405162461bcd60e51b815260206004820152600f60248201526e2737ba1039ba30b5b29037bbb732b960891b6044820152606401610391565b600061097c83610c5b565b905080156109e9576003546040516340c10f1960e01b8152336004820152602481018390526001600160a01b03909116906340c10f1990604401600060405180830381600087803b1580156109d057600080fd5b505af11580156109e4573d6000803e3d6000fd5b505050505b600083815260066020526040812080546001600160a01b0319168155600181018290556002810191909155600301805460ff19169055610a293384610e1d565b600254604051632142170760e11b8152306004820152336024820152604481018590526001600160a01b03909116906342842e0e90606401600060405180830381600087803b158015610a7b57600080fd5b505af1158015610a8f573d6000803e3d6000fd5b50506040518381528592503391507f7fc4727e062e336010f2c282598ef5f14facb3de68cf8195c2f23e1454b2b74e9060200160405180910390a3505061049760018055565b6001600160a01b0381166000908152600760209081526040808320805482518185028101850190935280835284938493929190830182828015610b3757602002820191906000526020600020905b815481526020019060010190808311610b23575b5050505050905060005b8151811015610bd457846001600160a01b031660066000848481518110610b6a57610b6a61119f565b6020908102919091018101518252810191909152604001600020546001600160a01b031603610bc257610bb5828281518110610ba857610ba861119f565b6020026020010151610c5b565b610bbf90846111cb565b92505b80610bcc816111e4565b915050610b41565b50909392505050565b6001600160a01b038116600090815260076020908152604091829020805483518184028101840190945280845260609392830182828015610c3d57602002820191906000526020600020905b815481526020019060010190808311610c29575b50505050509050919050565b610c51610ef1565b6106866000610f1e565b6000818152600660209081526040808320815160808101835281546001600160a01b03168082526001830154948201949094526002820154928101929092526003015460ff16606082015290610cb45750600092915050565b6000816040015142610cc6919061121a565b606083015160ff16600090815260056020526040902054600454919250908190610cf0908461122d565b610cfa919061122d565b95945050505050565b60076020528160005260406000208181548110610d1f57600080fd5b90600052602060002001600091509150505481565b610d3c610ef1565b60018260ff1610158015610d54575060048260ff1611155b610d955760405162461bcd60e51b8152602060048201526012602482015271496e76616c696420646966666963756c747960701b6044820152606401610391565b60ff909116600090815260056020526040902055565b610db3610ef1565b600455565b610dc0610ef1565b6001600160a01b038116610dea57604051631e4fbdf760e01b815260006004820152602401610391565b61049781610f1e565b600260015403610e1657604051633ee5aeb560e01b815260040160405180910390fd5b6002600155565b6001600160a01b0382166000908152600760205260408120905b8154811015610eeb5782828281548110610e5357610e5361119f565b906000526020600020015403610ed95781548290610e739060019061121a565b81548110610e8357610e8361119f565b9060005260206000200154828281548110610ea057610ea061119f565b906000526020600020018190555081805480610ebe57610ebe611244565b60019003818190600052602060002001600090559055610eeb565b80610ee3816111e4565b915050610e37565b50505050565b6000546001600160a01b031633146106865760405163118cdaa760e01b8152336004820152602401610391565b600080546001600160a01b038381166001600160a01b0319831681178455604051919092169283917f8be0079c531659141344cd1fd0a4f28419497f9722a3daafe3b4186f6b6457e09190a35050565b600060208284031215610f8057600080fd5b5035919050565b803560ff81168114610f9857600080fd5b919050565b60008060408385031215610fb057600080fd5b82359150610fc060208401610f87565b90509250929050565b6001600160a01b038116811461049757600080fd5b634e487b7160e01b600052604160045260246000fd5b6000806000806080858703121561100a57600080fd5b843561101581610fc9565b9350602085013561102581610fc9565b925060408501359150606085013567ffffffffffffffff8082111561104957600080fd5b818701915087601f83011261105d57600080fd5b81358181111561106f5761106f610fde565b604051601f8201601f19908116603f0116810190838211818310171561109757611097610fde565b816040528281528a60208487010111156110b057600080fd5b82602086016020830137600060208483010152809550505050505092959194509250565b6000602082840312156110e657600080fd5b81356110f181610fc9565b9392505050565b6020808252825182820181905260009190848201906040850190845b8181101561113057835183529284019291840191600101611114565b50909695505050505050565b6000806040838503121561114f57600080fd5b823561115a81610fc9565b946020939093013593505050565b6000806040838503121561117b57600080fd5b61115a83610f87565b60006020828403121561119657600080fd5b6110f182610f87565b634e487b7160e01b600052603260045260246000fd5b634e487b7160e01b600052601160045260246000fd5b808201808211156111de576111de6111b5565b92915050565b6000600182016111f6576111f66111b5565b5060010190565b60006020828403121561120f57600080fd5b81516110f181610fc9565b818103818111156111de576111de6111b5565b80820281158282048414176111de576111de6111b5565b634e487b7160e01b600052603160045260246000fdfea2646970667358221220a04d952b7f85acbbe7d526df34471b4123bcf2320f22877d6315efe34f002d3f64736f6c63430008140033",
  "linkReferences": {},
  "deployedLinkReferences": {}
}